:1000000080C10000AFC10000ADC10000ABC1000065
:10001000A9C10000A7C10000A5C10000A3C1000044
:10002000A1C100009FC100009DC100009BC1000054
:1000300099C1000097C1000095C1000093C1000064
:1000400091C100008FC100008DC100008BC1000074
:1000500089C1000087C1000085C100000C949D2269
:1000600081C100000C9467220C943D227BC10000EA
:1000700079C1000077C1000075C1000073C10000A4
:1000800071C100006FC100006DC100006BC10000B4
:1000900069C1000067C1000065C100000C94E7223F
:1000A00061C100005FC100005DC100005BC10000D4
:1000B00059C1000057C1000055C1000053C10000E4
:1000C00051C100004FC100004DC100004BC10000F4
:1000D00049C1000047C1000045C1000043C1000004
:1000E00041C1000000407A10F35A00A0724E180976
:1000F0000010A5D4E80000E87648170000E40B548F
:10010000020000CA9A3B000000E1F505000080965D
:100110009800000040420F000000A086010000008F
:10012000102700000000E803000000006400000049
:1001300000000A00000000000100000000002C7612
:10014000D888DC674F0823DFC1DFAE59E1B1B7962D
:10015000E5E3E453C63AE651997696E8E6C284268A
:10016000EB898C9B62ED407C6FFCEFBC9C9F40F266
:10017000BAA56FA5F490055A2AF75C936B6CF967E2
:100180006DC11BFCE0E40D47FEF520E6B500D0EDA7
:10019000902E0300943577050080841E080000200F
:1001A0004E0A000000C80C333333330F986E1283AD
:1001B0001141EF8D2114893BE65516CFFEE6DB1881
:1001C000D1844B381BF77C1D901DA4BBE424203246
:1001D00084725E228100C9F124ECA1E53D27000074
:1001E0002100240027002A002D00300033000101E7
:1001F0000000040107010A01000022002500280078
:100200002B002E003100340002010000050108011E
:100210000B01000020002300260029002C002F00E5
:100220003200000100000301060109010505050572
:10023000070508080808020202020A0A080804045E
:10024000040401010101010101010303030303038C
:100250000303040707070C0C0C0C0C0C0C0C02021B
:10026000020206060606060606060B0B0B0B0B0B18
:100270000B0B0102102020080810204010204080A5
:10028000020102010804020101020408102040805A
:1002900080402010080402018004020180402010E8
:1002A0000804020108040201010204081020408031
:1002B000010204081020408000000A0B02090C0D06
:1002C0000E08070304010000000000000000000009
:1002D000000000000000000000000000000000001E
:1002E00000000000121110000000000000000000DB
:1002F00000000000000000000000000000000B24CF
:10030000152A11241FBECFEFD1E2DEBFCDBF00E022
:100310000CBF14E0A0E0B2E0EAECFEE600E00BBFA8
:1003200002C007900D92A63BB107D9F726E0A6EBD5
:10033000B4E001C01D92A33EB207E1F711E0C0E8AE
:10034000D1E000E006C021970109802FFE010E9444
:10035000E530CF37D10780E00807A9F70E94922443
:100360000C9454374DCE909199059111FCCF91E0AA
:1003700090939905909398052FEF209397051092ED
:100380009605260F209395059093940590919405DA
:10039000880F892B80939405809193058130F9F41F
:1003A00010929305809194058093BB008091BC00CE
:1003B00083FDF8CF85EC8093BC0080919905813056
:1003C000E1F380919605861710F460919605A3E7F6
:1003D000B5E0E3E5F5E080E0861303C0089585EE1F
:1003E000EACF9D9191938F5FF7CF809151059091C6
:1003F0005205891B990B0895EEE9F5E0A089B189B2
:1004000082E08C93A485B5851C92A685B7858FEC78
:100410008C93108EA489B58986E08C93A289B389C8
:100420008C9180618C93A289B3898C9188608C9324
:10043000A289B3898C9180688C930288F389E02D1E
:1004400080818F7D808308958CB58C7F8CBD8DB528
:1004500081608DBD089560914C0570E0762F662710
:10046000CB0188279F7360914D05680F792F711D0F
:10047000072E000C880B990B2DE0660F771F881F45
:10048000991F2A95D1F72091D7063091D8062130AF
:10049000310539F4685E7E46834091090C94982DAD
:1004A0000895685171498C4F9F4FF8CF0895089572
:1004B0008CBD9DBD0895AF92BF92CF92DF92EF9217
:1004C000FF920F931F93CF93DF936C017B018B01FE
:1004D000040F151FEB015E01AE18BF08C017D1074E
:1004E00059F06991D601ED91FC910190F081E02DD8
:1004F000C6011995892B79F7C501DF91CF911F911D
:100500000F91FF90EF90DF90CF90BF90AF90089544
:100510000895FC01538D448D252F30E0842F90E009
:10052000821B930B541710F0CF96089501970895EE
:10053000FC01918D828D981761F0A28DAE0FBF2FB7
:10054000B11D5D968C91928D9F5F9F73928F90E00D
:1005500008958FEF9FEF0895FC01918D828D98177C
:1005600031F0828DE80FF11D858D90E008958FEFB9
:100570009FEF0895FC01918D228D892F90E0805C82
:100580009F4F821B91098F73992708958EE995E0FB
:10059000F1DF21E0892B09F420E0822F0895FC018E
:1005A000A48DA80FB92FB11DA35ABF4F2C91848DD4
:1005B00090E001968F739927848FA689B7892C9331
:1005C000A089B1898C91837080648C93938D848D84
:1005D000981306C00288F389E02D80818F7D808387
:1005E0000895EF92FF920F931F93CF93DF93EC0147
:1005F00081E0888F9B8D8C8D98131AC0E889F989CA
:10060000808185FF15C09FB7F894EE89FF896083CC
:10061000E889F98980818370806480839FBF81E04D
:1006200090E0DF91CF911F910F91FF90EF9008958F
:10063000F62E0B8D10E00F5F1F4F0F731127E02E6A
:100640008C8D8E110BC00FB607FCFACFE889F989A3
:10065000808185FFF5CFCE01A2DFF2CFEB8DEC0FCD
:10066000FD2FF11DE35AFF4FF0829FB7F8940B8FD7
:10067000EA89FB8980818062D0CFCF93DF93EC0140
:10068000888D8823B1F0AA89BB89E889F9898C9182
:1006900085FD03C0808186FD0CC00FB607FCF7CF37
:1006A0008C9185FFF2CF808185FFEDCFCE0177DF82
:1006B000EACFDF91CF91089580E090E0892B21F07F
:1006C00065DF81110E94000080E090E0892B49F0F5
:1006D00080E090E0892B29F00E94000081110E94A7
:1006E000000080E090E0892B49F080E090E0892BC9
:1006F00029F00E94000081110E94000080E090E03B
:10070000892B49F080E090E0892B29F00E940000BD
:1007100081110C94000008958150823108F05AC074
:10072000E82FF0E08827E856FC4F8F4F0C94E53017
:10073000B803BC03AA03B003B403EA03BF03C503B1
:10074000C903CF03D303D703DD03E103EA03E503C2
:10075000EB03EF03809180008F77809380000895F2
:10076000809180008F7DF9CF80918000877FF5CFC9
:1007700084B58F7784BD089584B58F7DFBCF80913C
:10078000B0008F778093B00008958091B0008F7D86
:10079000F9CF809190008F77809390000895809199
:1007A00090008F7DF9CF80919000877FF5CF809169
:1007B000A0008F778093A00008958091A0008F7D86
:1007C000F9CF8091A000877FF5CF809120018F77AE
:1007D000809320010895809120018F7DF9CF809131
:1007E0002001877FF5CF1F93CF93DF93282F30E031
:1007F000F901E854FD4F8491F901EE58FD4FD49171
:10080000F901E45DFD4FC491CC23A1F0162F8111B5
:1008100083DFEC2FF0E0EE0FFF1FE850FE4FA591B5
:10082000B4918FB7F894EC91111108C0D095DE23E4
:10083000DC938FBFDF91CF911F910895DE2BF8CF0E
:10084000109252051092510510929B0510929A0534
:100850001092990581E0809398051092930561E0CC
:1008600084E1C1DF61E085E1BEDFE9EBF0E080819A
:100870008E7F808380818D7F808388E48093B80021
:1008800085E48093BC0086E592E090934B058093CD
:100890004A0587E592E090934905809348050895BD
:1008A000CF93DF9390E0FC01EE58FD4F2491845DDF
:1008B0009D4FFC0184918823D1F090E0880F991F0F
:1008C000FC01E252FE4FA591B491FC01E850FE4FAD
:1008D000C591D49161110EC09FB7F8948C91E22F0D
:1008E000E0958E238C932881E223E8839FBFDF91DC
:1008F000CF9108958FB7F894EC91E22BEC938FBFD2
:10090000F6CF1F93CF93DF93182FEB0161E0C8DF81
:10091000209731F460E0812FDF91CF911F9163CF59
:10092000CF3FD10511F461E0F6CFE12FF0E0E854BC
:10093000FD4FE491E150E23108F0B3C0F0E08827C8
:10094000EB55FB4F8F4F0C94E530B704BF04C40444
:10095000CE04D8045105E204EA04F204FC040605BE
:1009600010051F052905510533053D05470584B5CB
:10097000806884BDC7BDDF91CF911F91089584B574
:10098000806284BDC8BDF7CF80918000806880936D
:100990008000D0938900C0938800EDCF80918000C3
:1009A000806280938000D0938B00C0938A00E3CF55
:1009B00080918000886080938000D0938D00C093E8
:1009C0008C00D9CF8091B00080688093B000C09334
:1009D000B300D1CF8091B00080628093B000C0930B
:1009E000B400C9CF80919000806880939000D0932C
:1009F0009900C0939800BFCF80919000806280934F
:100A00009000D0939B00C0939A00B5CF8091900046
:100A1000886080939000D0939D00C0939C00ABCFE2
:100A20008091A00080688093A0008091A0008F7BBF
:100A30008093A000D093A900C093A8009CCF809180
:100A4000A00080628093A000D093AB00C093AA0066
:100A500092CF8091A00088608093A000D093AD00D9
:100A6000C093AC0088CF80912001806880932001E2
:100A7000D0932901C09328017ECF8091200180620C
:100A800080932001D0932B01C0932A0174CF8091D1
:100A90002001886080932001D0932D01C0932C0108
:100AA0006ACFC038D1050CF03ECF34CF863308F082
:100AB000865320917B00982F9870277F922B9093DC
:100AC0007B008770806480937C0080917A008064D2
:100AD00080937A0080917A0086FDFCCF8091780027
:100AE0009091790008953FB7F89480911F059091F7
:100AF0002005A0912105B091220526B5A89B05C02F
:100B00002F3F19F00196A11DB11D3FBFBA2FA92F8C
:100B1000982F8827BC01CD01620F711D811D911D89
:100B200042E0660F771F881F991F4A95D1F70895F5
:100B30008F929F92AF92BF92CF92DF92EF92FF92ED
:100B40004B015C01D0DF6B017C01CDDF6C197D09AD
:100B50008E099F09683E734081059105B0F321E03D
:100B6000821A9108A108B10888EEC80E83E0D81E49
:100B7000E11CF11C81149104A104B10431F7FF9030
:100B8000EF90DF90CF90BF90AF909F908F9008959F
:100B90002FB7F89460911B0570911C0580911D057D
:100BA00090911E052FBF089585ED8093BC00809124
:100BB000BC0084FDFCCF1092990508952091F704A4
:100BC000260F3327331F21323105ECF4209199058C
:100BD000FC0190E080E0243069F082E00895A0916B
:100BE000F7042191AC0149525B4FA40FB52FB11D01
:100BF0002C930196861798F38091F704680F609301
:100C0000F70480E0089581E00895E0915205809115
:100C10005105E81730F4F0E0ED5AFA4F808190E08A
:100C200008958FEF9FEF089590915205809151059F
:100C30002FEF3FEF981748F4E92FF0E0ED5AFA4F05
:100C4000208130E09F5F90935205C9010895CF92B3
:100C5000DF92EF92FF920F931F93CF93DF937C016C
:100C6000CB018A0120919D05222389F0EB016B01C4
:100C7000C40ED51ECC15DD0561F06991D701ED914B
:100C8000FC910190F081E02DC7011995F3CF642FFD
:100C900095DFC801DF91CF911F910F91FF90EF90E9
:100CA000DF90CF900895CF93DF931F92CDB7DEB73B
:100CB000698320919D052223F9F020919A05203225
:100CC00058F021E030E0FC013383228390E080E0A3
:100CD0000F90DF91CF91089580919B05E82FF0E070
:100CE000E954FB4F998190838F5F80939B0580939C
:100CF0009A0581E090E0ECCF61E0CE0101965EDFE5
:100D0000F8CF20919A0581E0213208F044C080910B
:100D100099058111FCCF80919C0592E090939905F3
:100D200091E0909398059FEF909397051092960508
:100D300020939505A7EBB4E0E3E7F5E090E02913F5
:100D400031C01092940590919405880F892B80935F
:100D5000940580919305813049F510929305809117
:100D600094058093BB008091BC0083FDF8CF85EC97
:100D70008093BC00809199058230E1F380919705C2
:100D80008F3FB1F0809197058032A1F08091970557
:100D9000803391F084E010929B0510929A05109296
:100DA0009D0508953D9131939F5FC9CF85EEE0CFBA
:100DB00080E0F1CF82E0EFCF83E0EDCF90E080E004
:100DC0000895CF93CFB7F8948091B604811123C0D2
:100DD000E1E6F2E08491E7EAF2E09491E82FF0E0B6
:100DE000EE0FFF1FE252FE4FA591B491EC91E92363
:100DF00019F461E085E3F7DC61E085E351DD8CB552
:100E000080618CBD8CB580648CBD61E084E348DD7D
:100E100061E083E345DD8091B6048F5F8093B60483
:100E2000CFBFCF910895089561E0FC018081DBCCB4
:100E30008EBD00000DB407FEFDCF8EB508951F9343
:100E4000CF93DF93EB01182F60E08091C406CBDCD9
:100E5000812F8068EDDF8D2FEBDF8C2FDF91CF911D
:100E60001F91E6CFCF93DF93C4ECD6E06C857D85F0
:100E700090E080E070588F4E9F4FE1DF81E08B83E0
:100E800090E080E0DF91CF910895CF93C42FD7DF1A
:100E90008C2FCEDF84EC96E0CF91C6CFCF93DF933B
:100EA000D42FC52FCCDF8D2FC3DF8C2FC1DF84EC77
:100EB00096E0DF91CF91B8CFCF92DF92EF92FF9281
:100EC0000F931F93CF93DF9384EC96E0ADDFC4ECD8
:100ED000D6E00C851D85680168EE74E280E190E043
:100EE000AEDF802FA5DF8D2DA3DF80E0A1DF80E0C6
:100EF0009FDFCE0199DF1B82DF91CF911F910F9170
:100F0000FF90EF90DF90CF900895CF92DF92EF9215
:100F1000FF920F931F93CF93DF9390919F069F3F74
:100F200049F4DF91CF911F910F91FF90EF90DF90E7
:100F3000CF907ECFD82EF12CC7E0D0E001E010E0BA
:100F4000FF0C60E080919F064EDCB8010C2E01C0C2
:100F5000660F0A94EAF76D2180919D0644DC61E0FA
:100F600080919F0640DC20919E0630E0F901E85414
:100F7000FD4F8491F901EE58FD4FE490F901E45DD5
:100F8000FD4FC490CC2079F08111C6DBEC2DF0E050
:100F9000EE0FFF1FEE5EFD4FA591B491EC91EE2296
:100FA00011F06894F0F8219708F0CACF8F2DDF91E7
:100FB000CF911F910F91FF90EF90DF90CF90089508
:100FC000CF93DF93D82FC62F80919C068F3F51F58A
:100FD00080919106909192062091930631E0309392
:100FE0009D0520939C0510929B0510929A05DC01AB
:100FF000ED91FC910190F081E02D6D2F199580917C
:10100000910690919206DC01ED91FC910190F081A6
:10101000E02D6C2F19958091910690919206DF91A9
:10102000CF916FCE80919F068F3F19F482E591E0BA
:101030003FDA60E080919C06D6DB8D2F8F7765DFED
:101040008C2F63DF61E080919C06DF91CF91CBCB49
:101050001F93CF93DF93EA01162F60E0FC0180819C
:10106000C2DB812FE5DE8D2FE3DE8C2FE1DE80E019
:10107000DF91CF911F91DCCECF93AB01BC0184EC0B
:1010800096E0E6DF80E0D4DEC82F84EC96E0CCDE8C
:101090008C2FCF9108950F931F93CF93DF93AB01C4
:1010A000BC0184EC96E0D4DF80E0C2DE082F80E053
:1010B000BFDE182F80E0BCDED82F80E0B9DEC82F5D
:1010C00084EC96E0B1DEB8018D2F9C2FDF91CF919B
:1010D0001F910F910895CF93DF9344EE54E260E1A6
:1010E00070E084EC96E0B4DF80E0A2DED82F80E0F0
:1010F0009FDEC82F84EC96E097DE8D2F9C2FDF912A
:10110000CF9108958091C7068111D6DE4091D00617
:101110005091D10668EE74E280E190E0BFDEDBDF43
:101120002091D0063091D1068217930731F08F3F7E
:101130009F40A9F782E390E0089590E080E0089551
:10114000CF93DF93EC018091C706882321F0B4DEB2
:1011500081E08093C7064091D0065091D10668EE99
:1011600074E280E190E09ADE8091D2069091D306FD
:101170008C179D07A8F4AFDF9C012F3F8FE0380745
:10118000B1F08091D0069091D106821B930B80958F
:1011900090958C7F9F709093D3068093D206E4CF76
:1011A0008091C70681115EDE90E080E002C082E39C
:1011B00090E0DF91CF9108950F931F93CF93DF932A
:1011C000EB01182F092F8091D2069091D306049736
:1011D00010F18C2F2DDE8D2F2BDE812F29DE802F1D
:1011E00027DE8091D0069091D10604969F7090934F
:1011F000D1068093D0068091D2069091D3060497B1
:101200009093D3068093D20690E080E0DF91CF9157
:101210001F910F91089584E090E092DFC297C9F684
:1012200082E390E0F3CFCF92DF92EF92FF92209192
:10123000C706222329F0FF90EF90DF90CF90BCCF1C
:101240006B017C010FDEC701B601B6DF7C0134DE25
:10125000C701FF90EF90DF90CF90089560E07FEF9F
:101260008FEF9FEFE0DF67E070E080E096E2DBCF9A
:10127000762F642F94E0D7CFFC01CB0150E0BA0168
:101280007695762F662777956795622B55954795C6
:10129000782F7295707F742BA4E096958795AA9508
:1012A000E1F79E2F9295990F907EB3E0F695E79522
:1012B000BA95E1F7892B9E2F9068B5CF90E0B0E00A
:1012C000A0E0BC01CD019F61AECF60E070E080E0A6
:1012D00091E2A9CF60E070E0CB01A5DF61E07FEF94
:1012E0008FEF9FEFA0CF90E0B0E0A0E0BC01CD0178
:1012F000936099CF8F929F92AF92BF92CF92DF92DD
:10130000EF92FF920F93CF93DF934C015B01EA01C1
:1013100079016CE27FEF8FEF9FEF85DFB501BB0CAA
:10132000880B990BCB0177276627092C000CAA089C
:10133000BB08682979298A299B2975DFB70190E0C4
:1013400080E0CB01772766276E01F12CE12C6C2B16
:101350007D298E299F2967DF602F70E090E080E073
:10136000DF91CF910F91FF90EF90DF90CF90BF90E2
:10137000AF909F908F9057CF90E0B0E0A0E0BC017D
:10138000CD01946150CFCF92DF92EF92FF926B012B
:101390007C0169E07FEF8FEF9FEF45DFC701B6016A
:1013A000FF90EF90DF90CF903ECF8F929F92AF92C1
:1013B000BF92CF92DF92EF92FF920F931F93CF9342
:1013C000DF935C016B014A01E9016FE07FEF8FEF72
:1013D0009FEF29DFB601DD0C880B990BCB01772736
:1013E00066270B2C000CCC08DD086A297B298C2988
:1013F0009D2919DFBE01DD0F880B990BCB017727E3
:101400006627092C000CAA08BB08682979298A29B3
:101410009B2909DF30E020E0C8017727662703DF3A
:10142000B70190E080E0DF91CF911F910F91FF9085
:10143000EF90DF90CF90BF90AF909F908F90F3CEC2
:101440008F929F92AF92BF92CF92DF92EF92FF92D4
:101450000F931F93CF93DF934C015B01EA01790156
:1014600060E17FEF8FEF9FEFDEDEB501BB0C880BF5
:10147000990BCB0177276627092C000CAA08BB081B
:10148000682979298A299B29CEDEB70190E080E07E
:10149000CB01772766276E01F12CE12C6C2B7D297F
:1014A0008E299F29C0DE30E020E0C801772766271B
:1014B000BADE6FEF7FEF80E090E0DF91CF911F9178
:1014C0000F91FF90EF90DF90CF90BF90AF909F90E3
:1014D0008F90A9CE4F925F926F927F928F929F9240
:1014E000AF92BF92CF92DF92EF92FF920F931F9332
:1014F000CF93DF93EC016A017B0183E0C80ED11C1E
:10150000E11CF11CECEFCE22C114D104E104F10482
:1015100009F495C08091D2069091D306B0E0A0E086
:101520008C159D05AE05BF0508F065C08091C70606
:10153000882329F1C1DC4091D0065091D10668EE94
:1015400074E280E190E0AADC8DDC4090D2065090FD
:10155000D306712C612CC414D504E604F70410F4EE
:10156000260137018E0142015E01A40CB51CA016B4
:10157000B10679F0F80181918F015ADCF8CF4091E2
:10158000D0065091D10668EE74E280E190E086DCEE
:10159000DCCFC80DD91D8091D0069091D106880D61
:1015A000991D9F709093D1068093D0062091D2060A
:1015B0003091D306281939093093D3062093D206E7
:1015C000C418D508E608F708C601F1E0CF16F8E020
:1015D000DF06E104F10420F080E098E0A0E0B0E054
:1015E0002817390708F090CFABDDC29709F08CCFF0
:1015F00082E390E026C0812C912C5401899118DC63
:101600004FEF841A940AA40AB40A8C149D04AE0401
:10161000BF04A0F38091D0069091D1068C0D9D1D42
:101620009F709093D1068093D0068091D2069091BE
:10163000D3068C199D099093D3068093D20690E02F
:1016400080E0DF91CF911F910F91FF90EF90DF909D
:10165000CF90BF90AF909F908F907F906F905F9052
:101660004F900895CF92DF92EF92FF92CF93DF9346
:101670002091C706222339F0DF91CF91FF90EF90A0
:10168000DF90CF9027CF6A017B01EC01EBDBB70144
:10169000A601CE011FDFEC010FDCCE01DF91CF915F
:1016A000FF90EF90DF90CF9008950F931F93CF930B
:1016B000DF938C0144E155E260E170E084EC96E058
:1016C000C7DCE8010A5F1F4F80E0B2DB8993C017D7
:1016D000D107D1F784EC96E0DF91CF911F910F9164
:1016E000A3CB862F642F0E94B301109252058093E2
:1016F000510508958F929F92AF92BF92CF92DF9241
:10170000EF92FF92F82E80919C068F3F09F06EC0F9
:1017100080919106909192062091930631E030934A
:101720009D0520939C0510929B0510929A05DC0163
:10173000ED91FC910190F081E02D6F2D1995809134
:10174000910690919206DDDA43E0609193068091D4
:10175000910690919206C5DF809191069091920634
:10176000DC01ED91FC910284F385E02D19954C018B
:10177000990FAA08BB08BA2CA92C982C8824809110
:10178000910690919206DC01ED91FC910284F38523
:10179000E02D1995092E000CAA0BBB0B882A992A5B
:1017A000AA2ABB2ABA2CA92C982C882480919106AD
:1017B00090919206DC01ED91FC910284F385E02D7D
:1017C0001995092E000CAA0BBB0B6C017D01C828D2
:1017D000D928EA28FB28C701B601FF90EF90DF90D7
:1017E000CF90BF90AF909F908F90089580919F066B
:1017F0008F3F21F482E591E00E94580260E08091E1
:101800009C060E94F3038F2D80DB80E07EDB90E05E
:10181000B0E0A0E0CC24D82EE92EFA2E80E075DBD3
:10182000C82AFE2CED2CDC2CCC2480E06EDBC82AF0
:1018300061E080919C060E94F303CDCF8F929F922E
:10184000AF92BF92CF92DF92EF92FF920F931F93CE
:101850008AEF50DF6115710520E88207910509F4D0
:101860007DC00091A0061091A10630E020E0C72EB7
:10187000D82EE92EFF24E7FCFA94C01AD10AE20A16
:10188000F30A57E095958795779567955A95D1F71F
:10189000000F111F221F331F4B015C01801A910A98
:1018A000A20AB30AA5019401A091A206B091A306D1
:1018B0000E94022F4B015C01FBE0B594A794979422
:1018C0008794FA95D1F7A7019601C701B6010E9446
:1018D000AB2E9B01AC01ACE055954795379527950C
:1018E000AA95D1F7A091A406B091A5060E94022F57
:1018F0009B01AC01BEE05595479537952795BA9564
:10190000D1F7280D391D4A1D5B1D20939806309391
:10191000990640939A0650939B06A5E0B0E00E947A
:10192000F82E60587F4F8F4F9F4F672F782F892F4A
:10193000992787FD9A950E94982D20E030E048EC89
:1019400052E40E947C2F1F910F91FF90EF90DF9047
:10195000CF90BF90AF909F908F90089560E070E01F
:1019600080EC9FE7F0CFCF93DF93C82F80919C0648
:101970008F3F09F044C0809191069091920620918A
:10198000930631E030939D0520939C0510929B05B2
:1019900010929A05DC01ED91FC910190F081E02D0F
:1019A0006C2F19958091910690919206AAD942E0E8
:1019B00060919306809191069091920692DE8091BB
:1019C000910690919206DC01ED91FC910284F385E1
:1019D000E02D1995C82F8091910690919206DC0117
:1019E000ED91FC910284F385E02D199520E03C2FC8
:1019F000E901C82BD92BCE01DF91CF9108958091B9
:101A00009F068F3F21F482E591E00E94580260E03A
:101A100080919C060E94F3038C2F77DA80E075DAC0
:101A2000C82F80E072DADC2FC82F61E080919C061D
:101A30000E94F303E0CF97DF98278927982708951E
:101A4000CF93C82F80919C068F3F99F58091910686
:101A5000909192062091930631E030939D0520935A
:101A60009C0510929B0510929A05DC01ED91FC916A
:101A70000190F081E02D6C2F199580919106909145
:101A800092063FD941E06091930680919106909132
:101A9000920627DE8091910690919206DC01ED91ED
:101AA000FC910284F385E02D1995C82F8C2FCF91DE
:101AB000089580919F068F3F21F482E591E00E9476
:101AC000580260E080919C060E94F3038C2F1DDA7F
:101AD00080E01BDAC82F61E080919C060E94F3032E
:101AE000E5CF8F929F92AF92BF92EF92FF920F93AA
:101AF0001F93CF93DF9300D01F921F92CDB7DEB715
:101B00007C014A015B018E010F5F1F4F85E0F801E8
:101B100011928A95E9F781E0F1E0EF16F10409F4FA
:101B200081E18B838091D40681FF02C090E89C8381
:101B300082FF03C09C8194609C8383FF03C09C81CF
:101B400092609C8384FF03C09C8198609C8385FF86
:101B500003C09C8190629C839C8190619C8386FFE2
:101B600002C090E49D8387FF03C08D8180688D83D0
:101B700020E030E04AE754E4C501B4010E94F72DAB
:101B8000EA94EF2809F041C020E030E041E653E458
:101B90000E94182F20E030E040E850E40E94F72D2A
:101BA0002FE632E143E052E40E947C2F0E94E92FAD
:101BB0007F7379836A8381E080939D0580E68093BB
:101BC0009C0510929B0510929A057E0186E0E80E16
:101BD000F11CF80161918F0181E896E064D8E0166C
:101BE000F106B9F781E896E08CD80F900F900F902E
:101BF0000F900F90DF91CF911F910F91FF90EF9079
:101C0000BF90AF909F908F90089520E030E041E624
:101C100053E40E94172FBECF0F931F93CF93DF93F0
:101C2000EC0185E0FE0111928A95E9F765E080E616
:101C30000E94B3011092520580935105882391F0C0
:101C40008E010B5F1F4F81E896E00E941406899376
:101C50000C171D07C1F781E090E0DF91CF911F9134
:101C60000F91089590E080E0F8CFCF92DF92EF924D
:101C7000FF920F931F93CF93DF9300D01F921F9279
:101C8000CDB7DEB76B017C0160537242894F9F4F25
:101C90000E94962D20E034E244E759E40E947C2F14
:101CA000AB01BC0181E090E01CDF6EE170E080E000
:101CB00090E00E949805CE010196AEDF10E000E0B2
:101CC000019721F40C8102950F7010E0C701B60155
:101CD000605D7D4D864091090E94962D20E034E2A2
:101CE00044E759E40E947C2FAB01BC0190E080E006
:101CF000F8DE6EE170E080E090E00E949805CE0191
:101D000001968ADF0197C1F42C8122952F7081E022
:101D100090E02017110609F00CF480E00F900F906E
:101D20000F900F900F90DF91CF911F910F91FF9027
:101D3000EF90DF90CF90089580E090E0EFCFFC012E
:101D400001900020E9F73197AF01481B590BBC0106
:101D50008EE995E00C945B028F929F92AF92BF92B6
:101D60000F931F93CF93DF93CDB7DEB7A1970FB635
:101D7000F894DEBF0FBECDBF19A2423008F44AE08E
:101D80008E010F5D1F4F842E912CB12CA12CA5012B
:101D900094010E94BA2EE62FB901CA01EA30ECF490
:101DA000E05DD801EE938D01232B242B252B79F7B1
:101DB00090E080E0109711F0CD01C1DFA1960FB641
:101DC000F894DEBF0FBECDBFDF91CF911F910F9171
:101DD000BF90AF909F908F900895E95CE2CF8F9273
:101DE0009F92AF92BF92FF920F931F93CF93DF9377
:101DF0004C015B01F42EE9016CE07FEF8FEF9FEF68
:101E000012DAB501BB0C880B990BCB01772766273B
:101E1000092C000CAA08BB08682979298A299B2962
:101E200002DABE0190E080E0CB01772766276F29B8
:101E3000FAD9F80101900020E9F7AF01401B510BDE
:101E400070E060E0C801DF91CF911F910F91FF908A
:101E5000BF90AF909F908F9005CC0F931F93CF931F
:101E6000DF938C01EB016EE07FEF8FEF9FEFDBD90B
:101E7000012E000C220B330BC801772766276664FE
:101E8000D2D960EA70E084E290E0CDD96DE170E0F3
:101E900080E090E0C8D9FE0101900020E9F7AF0191
:101EA0004C1B5D0B70E060E0CE01DF91CF911F9184
:101EB0000F91D8CB8F929F92AF92BF92CF92DF9229
:101EC000EF92FF920F931F93CF93DF934C015B012F
:101ED000EA0179016DE07FEF8FEF9FEFA4D9B501A3
:101EE000BB0C880B990BCB0177276627092C000CBC
:101EF000AA08BB08682979298A299B2994D9B7019E
:101F000090E080E0CB01772766276E01F12CE12C71
:101F10006C2B7D298E299F2986D96BE170E080E0AA
:101F200090E081D9F80101900020E9F7AF01401B52
:101F3000510B70E060E0C801DF91CF911F910F91CC
:101F4000FF90EF90DF90CF90BF90AF909F908F90D9
:101F500089CBFC0180819181009711F00C94FD32B6
:101F60000895CF92DF92EF92FF92CF93DF930E947A
:101F70002B026B017C0120E030E543EC57E40E942A
:101F80007C2F20E030E040E05FE30E94182F0E94A9
:101F9000573020E030E040E251E40E947C2F20E006
:101FA00030E040EB52E40E94922D87FF14C060E0C5
:101FB00073EF8FE696E059DE9093D8068093D706AC
:101FC00040E050E068ED72E4DF91CF91FF90EF9038
:101FD000DF90CF9086CD20E030E040EC57E4C701A1
:101FE000B6010E94172F20E034E244E759E40E9432
:101FF0007C2F20E034E244E759E40E94F72D20E0F2
:102000003AEB4BE558E40E94182F20E030E040E81E
:1020100050E40E94F72D20E030E040E058E30E94B9
:10202000F72D0E94E92F60934D057F7370647093C4
:102030004C0580E580934E0510924F058091D406A3
:1020400081FF03C090E890934F0582FF05C09091F7
:102050004F05946090934F0583FF05C090914F0505
:10206000926090934F0584FF05C090914F05986052
:1020700090934F0585FF05C090914F059062909316
:102080004F0590914F05906190934F0586FD34C0A8
:102090001092500587FF05C080915005806880939D
:1020A000500581E080939D0580E680939C05109209
:1020B0009B0510929A05CCE4D5E0699181E896E001
:1020C0000E94530685E0C135D807B9F781E896E04C
:1020D0000E94810681E090E09093D8068093D70615
:1020E00068EC70E080E090E0DF91CF91FF90EF909E
:1020F000DF90CF900C94980590E490935005CACF50
:10210000CF92DF92EF92FF92CF93DF930E942B0248
:102110006B017C0120E030E543EC57E40E947C2F0A
:1021200020E030E040E05FE30E94182F0E9457302B
:1021300020E030E040E251E40E947C2F20E030E0DB
:1021400048ED52E40E94BA301816A4F460E076EC30
:102150008EE395E08ADD9093D8068093D70640E021
:1021600050E060EB72E4DF91CF91FF90EF90DF9051
:10217000CF90B7CC20E030E040EC57E4C701B60187
:102180000E94182F20E034E244E759E40E947C2F9B
:1021900020E034E244E759E40E94F72D20E03AEBD6
:1021A0004BE558E40E94182F20E030E040E850E46E
:1021B0000E94F72D20E030E040E058E30E94F72D28
:1021C0000E94E92F60934D057F73706470934C05F6
:1021D00080ED80934E0510924F058091D40681FFCB
:1021E00003C090E890934F0582FF05C090914F0582
:1021F000946090934F0583FF05C090914F059260C6
:1022000090934F0584FF05C090914F05986090937F
:102210004F0585FF05C090914F05906290934F0543
:1022200090914F05906190934F0586FD34C01092B8
:10223000500587FF05C08091500580688093500548
:1022400081E080939D0580E680939C0510929B051C
:1022500010929A05CCE4D5E0699181E896E00E945D
:10226000530685E0C135D807B9F781E896E00E94AA
:10227000810681E090E09093D8068093D70668ECC1
:1022800070E080E090E0DF91CF91FF90EF90DF90E1
:10229000CF900C94980590E490935005CACF0F937B
:1022A0001F93CF93DF93EC0188819981009759F0B8
:1022B0002A813B812617370730F081E0DF91CF91EB
:1022C0001F910F9108958B016F5F7F4F0E9486339E
:1022D000009759F0998388831B830A832C813D8161
:1022E000232B59F7FC011082E8CF80E0E7CFEF9273
:1022F000FF920F931F93CF93DF936115710541F404
:1023000080E0DF91CF911F910F91FF90EF900895A2
:1023100041155105A9F07B01EC010C811D81040FD1
:10232000151FB801BCDF882359F3288139818C81BE
:102330009D81B701820F931F0E9476341D830C8309
:1023400081E0DFCFEF92FF920F931F93CF93DF9344
:10235000EC017B018A01BA01A2DF28813981811158
:1023600014C02115310519F0C9010E94FD321982EE
:1023700018821D821C821B821A82CE01DF91CF91AE
:102380001F910F91FF90EF9008951D830C83B7016B
:10239000C9010E947634F1CFFB0101900020E9F7DA
:1023A0003197AF01461B570BCDCFFC011182108234
:1023B0001382128215821482FB0101900020E9F73A
:1023C0003197AF01461B570BBDCF0F931F93CF9390
:1023D000DF9300D000D01F921F92CDB7DEB74AE046
:1023E0008E010F5F1F4FB801C0970E94FA2AF801B3
:1023F00001900020E9F73197AF01401B510BB80164
:1024000089ED96E074DF68EC70E080E090E00E9477
:10241000980528960FB6F894DEBF0FBECDBFDF91AA
:10242000CF911F910F9108952F923F924F925F92FB
:102430006F927F928F929F92AF92BF92CF92DF92D4
:10244000EF92FF920F931F93CF93DF93CDB7DEB739
:10245000C858D1090FB6F894DEBF0FBECDBF02E059
:102460002FEC30E048E050E068E270E08AEB91E069
:102470000E947A090E9482089E01245B3F4F6D965C
:102480003FAF2EAF6D97CE01C8966F969FAF8EAFC0
:102490006F97DE015F96A196BFAFAEAFA19786E3BF
:1024A0000E945605AE969FAF8EAFAE97CE018E5A64
:1024B0009F4FFBD80E942E0980E00E94BC0960E07B
:1024C00070E980E190E00E944B08DC01CB01992784
:1024D000AA27BB2782309105A105B10509F48BC25B
:1024E0008E309105A105B10509F07DC267E474E065
:1024F000CE01845B9F4F59DFE12CBB24B394FCE1F8
:10250000AF2E6E01B3E0CB0ED11C86E395E0CDD8A3
:102510000E942E094FEF6FEF8FEF0E94380960E0A5
:1025200070E980E190E00E944B08DC01CB010A9742
:10253000A109B10980339105A105B10508F051C188
:10254000FC018827E955FD4E8F4F0C94E530D712DA
:10255000F113E513E213F1136A1475144F14751493
:10256000F113F113F113F113F113F113F113F1134B
:10257000F113F113F113F113F113F113F113F1133B
:10258000F113F113F113F113F113F113F113F1132B
:10259000F113F113F113F113F11330143414371450
:1025A0003A143D1440144314461449144C143CDFAF
:1025B000F12C67E474E0CE01845B9F4FEDDEEE24E6
:1025C000E3946CEC7CEC8CEC92E00E94130967E0E5
:1025D00070E080E096E20E94130965E872E0CE01A7
:1025E000C896E3DE1A8219821C821B821E821D821B
:1025F0006091D9067091DA066115710539F0409144
:10260000DD065091DE06CE0101969CDE44E050E0EE
:1026100068E174E0CE0101966ADE81110CC0898107
:102620009A81009711F00E94FD321A8219821E824F
:102630001D821C821B824D815E8169817A81CE015F
:10264000C89655DECE01019684DC0CAD1DAD01159A
:10265000110509F04CC11F8E89E0E11062C10E9492
:102660005E0940E060E080E00E94380920E040E040
:102670006FE470E082E190E00E943C0920E040E0DD
:102680006FE970E086E291E00E943C090E946509D2
:102690004FEF6FEF8FEF0E9438098E01015E1F4FE1
:1026A00030E020E04DE169E670E082E390E097DB06
:1026B0008DE00E94730902E912E027E430E046E968
:1026C00050E062E370E086E391E0F4DB809147053F
:1026D000882309F420C18FE00E9473090DE912E0FC
:1026E00027E430E046E950E062E870E086E391E0FC
:1026F000E1DB8AE00E9473090BEB12E024E230E098
:1027000048E750E066EE70E08FE591E0D3DB1A8297
:102710001982F6012A2D11922A95E9F762960EADDB
:102720001FAD629701151105B1F02E966EAD7FAD0C
:102730002E97DB018C91882371F001501109A801BB
:10274000CE0101960E947D34E1E0F0E0EC0FFD1F28
:10275000E00FF11F108240E060E08FEF0E94380927
:102760008E010F5F1F4F30E020E048E168ED70E020
:1027700087E290E034DB0E946A090E948208CE0161
:10278000C896E7DBF110C1CECE01845B9F4FE1DB41
:10279000C857DF4F0FB6F894DEBF0FBECDBFDF9135
:1027A000CF911F910F91FF90EF90DF90CF90BF904E
:1027B000AF909F908F907F906F905F904F903F90E1
:1027C0002F900895FF24F394F4CE8091DD0690912C
:1027D000DE06892B49F461E772E0CE01845B9F4FEE
:1027E000DBDDFF24F394EDCEE091D906F091DA061B
:1027F000309721F410923505E5E3F5E080818033D0
:1028000051F367E474E0CE01845B9F4FC5DD809196
:10281000D9069091DA0620E030E0A901009721F076
:102820000E94D42A9B01AC01A0E6BAEE0E94F82EC9
:1028300060933F0570934005809341059093420556
:102840000E94C80560934305709344058093450535
:1028500090934605B0924705B0923E05E5DDC1CFA5
:1028600080E390E0B2DDBDCF81E390E0FBCF82E377
:1028700090E0F8CF83E390E0F5CF84E390E0F2CFEF
:1028800085E390E0EFCF86E390E0ECCF87E390E044
:10289000E9CF88E390E0E6CF89E390E0E3CF2091B1
:1028A000DD063091DE06C90101978217930758F4BF
:1028B000E091D906F091DA06E80FF91F9093DE0651
:1028C0008093DD06108264E670E080E090E00E9474
:1028D000980587CF1092470510923F05109240054A
:1028E00010924105109242057CCFE12C7ACF033142
:1028F000110510F003E110E068AD79ADA801CE013B
:102900004F960E947D34EFE1F0E0EC0FFD1FE00FE9
:10291000F11F1082A1CE8CE00E9473090DEA12E033
:10292000DFCE0E945E0940E060E080E00E9438094E
:1029300020E040E068E170E085E190E00E943C0921
:1029400020E040E06FE570E083E191E00E943C0907
:102950000E9465094FEF6FEF8FEF0E9438098E01DB
:10296000015E1F4F30E020E04DE16EE270E082E357
:1029700090E035DA62EC72E08EE690E06EDA66ECBA
:1029800072E08BE990E069DA6AEC72E088EC90E042
:1029900064DA80E10E9473090EEC12E02CE330E06F
:1029A00049E750E06CE370E080E491E083DA81E194
:1029B0000E94730908ED12E02CE330E049E750E093
:1029C00062E870E080E491E075DA82E10E947309C8
:1029D0000BEB12E024E230E048E750E064EE70E0F8
:1029E00082E691E093CE83319105A105B10509F00E
:1029F000EDC51092470581E00E94BC096CEC7CECAF
:102A00008CEC92E00E94130967E070E080E096E2AF
:102A10000E9413098EE00E94730903E813E023E289
:102A200030E044E650E06AEE70E085EA90E042DA99
:102A300089E10E94730909E813E023E230E044E6EB
:102A400050E06AEE70E08EE091E034DA8AE10E94B4
:102A500073090FE813E023E230E044E650E06AEE49
:102A600070E087E791E026DA40E06FEF8FEF0E9499
:102A7000380989E00E945E0940E060E080E00E9441
:102A8000380920E040E06AE070E08AE090E00E94CF
:102A90003C0920E040E060E570E08CED90E00E94B1
:102AA0003C0920E040E06AE570E08AE090E00E94A6
:102AB0003C0920E040E060EA70E08CED90E00E948C
:102AC0003C0920E040E06AEA70E08AE090E00E9481
:102AD0003C0920E040E066EE70E08CED90E00E9462
:102AE0003C0920E040E06AE070E084E091E00E9470
:102AF0003C0920E040E060E570E086ED91E00E9456
:102B00003C090E9465090E941E0C8DEF0E94B30CC7
:102B1000B0E0A0E0811530E89307A105B10511F4FC
:102B20000C947421409098065090990660909A06F3
:102B300070909B06ECE25E1AE1E06E0A71086C018F
:102B40007D018EE0CC0CDD1CEE1CFF1C8A95D1F7BC
:102B50008091BC069091BD06092E000CAA0BBB0B00
:102B600024E1880F991FAA1FBB1F2A95D1F7C81A05
:102B7000D90AEA0AFB0AA091BE06B091BF06A301DA
:102B800092010E94022FC61AD70AE80AF90AF0E455
:102B9000DF0EE11CF11C6FE0F594E794D794C79425
:102BA0006A95D1F7A091BB06B0E00E94F82E4B01C8
:102BB0005C017BE0B594A794979487947A95D1F7BC
:102BC00020E8920EA11CB11CA091C0060A2E000C98
:102BD000BB0B92010E94022FEAE0959587957795AD
:102BE0006795EA95D1F7A50194010E94AB2E9B0150
:102BF000AC01FAE05595479537952795FA95D1F7A9
:102C0000405E5F4FA091B906B091BA060E94022FB4
:102C1000705E8F4F9F4FAEE095958795779567953E
:102C2000AA95D1F7A70196010E94AB2E6B017C01FA
:102C3000BFE09595879577956795BA95D1F79B01F4
:102C4000AC010E94AB2E9B01AC0117E05595479556
:102C5000379527951A95D1F7A091B806B0E00E9454
:102C6000F82E04E095958795779567950A95D1F7A5
:102C7000C61AD70AE80AF90AF7FE03C0C12CD12CFC
:102C80007601C701B60161307105810539E193070D
:102C900024F060E070E080E099E10CE09595879584
:102CA000779567950A95D1F70E94982D20E030E03E
:102CB00040E85AE30E94F72D0E94E92FE7966CAF97
:102CC0007DAF8EAF9FAFE7970E941E0C0E94E92F49
:102CD000EB966CAF7DAF8EAF9FAFEB970E941E0C53
:102CE00087EF0E947A0BEF966CAF7DAF8EAF9FAFF0
:102CF000EF97611571058048910511F40C947A21C4
:102D00008091980690919906A0919A06B0919B06A1
:102D10006C017D01FF0CCC08DC2C76019C01AD011F
:102D20006C2D7C2D8C2D9C2D345F41405109610907
:102D3000710981099109A2962FAFA297A6963FAF7C
:102D4000A697A7964FAFA797A8965FAFA897A99603
:102D50006FAFA997AA967FAFAA97AB968FAFAB97A5
:102D6000AC969FAFAC9759016A017B018C010E9420
:102D7000ED30E1962FAFE197E2963FAFE297E39611
:102D80004FAFE397CC57DF4F5883C458D040CB5751
:102D9000DF4F6883C558D040CA57DF4F7883C65885
:102DA000D040C957DF4F8883C758D040C857DF4F3E
:102DB0009883C858D0403091A9062091A806932F37
:102DC000990F990B492F592F692F792F892F0E941D
:102DD000ED300CE00E940D3219012A013B014C013B
:102DE0003091AB062091AA06932F990F990BE1968B
:102DF000AFACE197E296BFACE297E396CFACE39736
:102E0000CC57DF4FD880C458D040CB57DF4FE88035
:102E1000C558D040CA57DF4FF880C658D040C95770
:102E2000DF4F0881C758D040C857DF4F1881C858B6
:102E3000D040492F592F692F792F892F0E94ED30CB
:102E400008E00E94263251016201730184010E9450
:102E5000433270588F4F9F4F2090A6063090A706A0
:102E60005101C12CD12CE12CF12C00E010E00E948A
:102E7000ED3001E20E942632C158DF4F2883CF5740
:102E8000D040C058DF4F3883C058D040CF57DF4FB5
:102E90004883C158D040CE57DF4F5883C258D040E6
:102EA000CD57DF4F6883C358D040272E382E492E88
:102EB000A0E00E94553211F40C9480213091B106AB
:102EC0002091B006932F990F990BE196AFACE19743
:102ED000E296BFACE297E396CFACE397CC57DF4FD7
:102EE000D880C458D040CB57DF4FE880C558D04079
:102EF000CA57DF4FF880C658D040C957DF4F088106
:102F0000C758D040C857DF4F1881C858D040492F04
:102F1000592F692F792F892F0E94ED30E1962FAF1D
:102F2000E197E2963FAFE297E3964FAFE397552ED6
:102F30003B014C013091AF062091AE06932F990FC3
:102F4000990BA296AFACA297A696BFACA697A796F0
:102F5000CFACA797A896DFACA897A996EFACA99796
:102F6000AA96FFACAA97AB960FADAB97AC961FADE8
:102F7000AC97492F592F692F792F892F0E94ED3057
:102F800001E10E940D32E196AFACE197E296BFAC51
:102F9000E297E396CFACE397D52C730184010E94AE
:102FA000433259016A017B01582E192FEF964CAD1F
:102FB0005DAD6EAD7FADEF97E4E075956795579584
:102FC0004795EA95D1F780E090E0A0E1B0E0841B5E
:102FD000950BA60BB70B3C014D01990C6608762C9E
:102FE00043019C01AD01662D762D862D962D0FE1B6
:102FF0000E940D3239014A01B62FA72FF82FE92F71
:103000003091AD062091AC06932F990F990B492F63
:10301000592F692F792F892F03E20E940D32052D38
:103020000E94433259016A017B018C019301A40182
:103030006B2F7A2F8F2F9E2F0E944C32A5E3AA2E42
:10304000BCE0BB2EC12CD12CE12CF12C00E010E017
:103050000E94ED30C158DF4FA880CF57D040C058F4
:10306000DF4FB880C058D040CF57DF4FC880C1581D
:10307000D040CE57DF4FD880C258D040CD57DF4F19
:10308000E880C358D040F22C032D142D0E943F310C
:10309000A2962FAFA297A6963FAFA697A7964FAF3F
:1030A000A797A8965FAFA897A9966FAFA997AA967A
:1030B0007FAFAA97AB968FAFAB97AC969FAFAC970D
:1030C0000DE00E942632322E432E542E652E762E8F
:1030D000872E982E292E3091B7062091B606932F71
:1030E000990F990BA32CB42CC52CD62CE72CF82CBB
:1030F000092D122D492F592F692F792F892F0E94C1
:10310000ED300E94ED3009E10E942632A296AFAC6C
:10311000A297A696BFACA697A796CFACA797A8965E
:10312000DFACA897A996EFACA997AA96FFACAA978F
:10313000AB960FADAB97AC961FADAC970E944332E8
:1031400019012A013B014C013091B5062091B406CA
:10315000932F990F990B492F592F692F792F892F69
:103160000E94ED3003E10E94263259016A017B0181
:103170008C019101A201B301C4010E94433208E015
:103180000E94263259016A017B01E82F192F3091E4
:10319000B3062091B206932F990F990B492F592FFF
:1031A000692F792F892F04E00E940D320E2F0E9483
:1031B00043320E94153020E030E040E85BE30E949B
:1031C000F72D20E030E048EC52E40E947C2F0E9472
:1031D000E92F2B01AE968EAD9FADAE976AE070E001
:1031E0000E94D2307F936F930BE913E01F930F93EC
:1031F0006F96BFAD6F97BF936E96EFAD6E97EF93DF
:103200000E948C34E596FFADE597FF93E4962FADD1
:10321000E4972F931F930F936D963FAD6D973F9358
:103220006C968FAD6C978F930E948C345F924F9207
:103230001F930F93A1969FADA1979F93A096AFADBB
:10324000A097AF930E948C34E996BFADE997BF93E6
:10325000E896EFADE897EF931F930F935E01F8E5C3
:10326000AF0EB11CBF92AF920E948C34AE962FADC0
:10327000AE972F93AD963FADAD973F931F930F93AE
:103280006F968FAD6F978F936E969FAD6E979F934E
:103290000E948C344FEF6FEF8FEF0E94380960E08F
:1032A00070E084ED90E00E94C30924E6C22ED12C88
:1032B0008601E996AEADBFADE9970A1B1B0B34E65C
:1032C000E32EF12C22E330E04BE050E064E170E0CB
:1032D00088EC90E00E94D5098601E596EEADFFAD41
:1032E000E5970E1B1F0B2DE230E04BE050E061EB49
:1032F00070E088EC90E00E94D50948EEC42E43E0CF
:10330000D42E86010419150958EEE52E53E0F52E4A
:1033100022E330E04BE050E064E670E088EC90E0BF
:103320000E94D5098601AE962EAD3FADAE97021B29
:10333000130B22E330E04BE050E062E170E087ECF9
:1033400091E00E94D5094FEF6FEF8FEF0E9438098F
:103350000EE913E030E020E046E16FE070E08FE03E
:1033600090E00E94EF0E850130E020E04FE16CE13B
:1033700070E08FE590E00E94EF0E0AEA13E030E083
:1033800020E04FE16CE170E086E990E00E94EF0EF2
:103390000CEA13E030E020E046E16AE570E08EE000
:1033A00090E00E94EF0E8E01045B1F4F30E020E0A2
:1033B0004FE16EE670E08FE590E00E94EF0E07EBC4
:1033C00013E030E020E04FE16EE670E086E990E047
:1033D0000E94EF0E09EB13E030E020E046E16AEADC
:1033E00070E08EE090E00E94EF0E8E01015E1F4FB4
:1033F00030E020E04FE169EB70E080E390E00E9474
:10340000EF0E03EC13E030E020E04FE169EB70E0F9
:1034100086E990E00E94EF0E05EC13E030E020E03A
:1034200046E16DE070E089E091E00E94EF0E8E01D0
:10343000085C1F4F30E020E04FE16DE170E083E376
:1034400091E00E94EF0E06ED13E030E020E04DE148
:103450006BE270E08CE791E00E94EF0E40E060E0EC
:1034600084ED0E9438090FB6F894DEBF0FBECDBFC1
:1034700080914705882309F4A3C080913F0590916E
:103480004005A0914105B0914205892B8A2B8B2BD9
:1034900009F43BC70E94C8050091430510914405FB
:1034A0002091450530914605601B710B820B930BF3
:1034B00000913F0510914005209141053091420552
:1034C000601771078207930708F41FC76CEC7CEC48
:1034D0008CEC92E00E94130967E070E080E096E2D5
:1034E0000E94130940E060E080E00E9438090CED82
:1034F00013E030E020E04CE16EE670E08EEB90E00F
:103500000E94EF0E4FEF6FEF8FEF0E94380983E1BB
:103510000E94730909EE13E024E230E048E750E02E
:103520006CE870E084E690E00E945A0F84E10E940B
:10353000730900EF13E024E230E048E750E06CE864
:1035400070E08AEF90E00E945A0F80913E05882338
:10355000B9F103E010E084E3E82EF12C95E0C92EE8
:10356000D12CE0966EAD7FADE09785E00E9481049E
:10357000E096AEADBFADE097AC0DBD1DE096BFAF20
:10358000AEAFE097109719F0AF3FB10519F4D194A1
:10359000C194D10862E370E080E090E00E94980559
:1035A000B1E0EB1AF108E9F601501109A1F66091BA
:1035B0003C0570913D0585E00E94810410923E0516
:1035C0000E946A090E9482080C944F12843191056E
:1035D000A105B10559F40E94C80560934305709395
:1035E0004405809345059093460505CA89319105A8
:1035F000A105B10509F078C1AA24A394B12C7724C0
:103600007394E0E18E2E7E01B8E2EB0EF11C6E01A8
:10361000EAE0CE0ED11CCE01C8960E94550B0E9446
:103620002E094FEF6FEF8FEF0E94380960E070E9CD
:1036300080E190E00E944B086F3171058105910592
:1036400009F434C168F46A3071058105910519F1F6
:103650006E3171058105910501F19924939420C083
:10366000603271058105910509F42DC16232710541
:103670008105910591F780910402882309F42AC1FC
:1036800060E08CE20E94F303109204026CE271E0AD
:1036900080E090E015C10E9414120E941412912C37
:1036A00089E0EFE0F2E0DE015F9601900D928A95ED
:1036B000E1F7D701E82D1D92EA95E9F789E0E8E204
:1036C000F2E0DE01119601900D928A95E1F7D601A4
:1036D000E82D1D92EA95E9F781E00E94BC096CECA7
:1036E0007CEC8CEC92E00E94130967E070E080E0D3
:1036F00096E20E94130989E00E945E0940E060E0C2
:1037000080E00E94380920E040E066E170E08AE055
:1037100090E00E943C0920E040E063E770E08CED1F
:1037200090E00E943C0920E040E066E170E084E027
:1037300091E00E943C0920E040E063E770E086ED04
:1037400091E00E943C090E9465094FEF6FEF8FEFF7
:103750000E9438098CE495E00E940C0E019709F054
:103760005CC080914F0582958F7090E090933205F8
:10377000809331050E942B0220E030E543EC57E4B2
:103780000E947C2F20E030E040E05FE30E94182F91
:103790000E94573020E030E040E251E40E947C2F4C
:1037A0008E01015E1F4F22E042E00E94192A30E0A4
:1037B00020E04EE164E370E08FE090E00E94EF0EC5
:1037C0006091310570913205072E000C880B990B22
:1037D0000E94982D0E51110922E042E00E94192A00
:1037E0006DED72E0C8010E946B3430E020E04EE1E4
:1037F00064E370E089E191E00E94EF0E8091310571
:10380000909132050A974CF48091330590913405DC
:10381000019709F066C00E9480108EE10E94730932
:103820000BEB12E024E230E048E750E066EE70E097
:1038300082E691E00E945A0F8FE10E94730901EE27
:1038400012E02CE230E046EA50E06CE970E084E0FF
:1038500091E00E945A0F80E20E94730901EF12E08A
:103860002CE230E046EA50E06CE970E086E390E05C
:103870000E945A0F82E20E9473098091040203E0C1
:1038800013E0811102C00FE013E024E230E040E9D0
:1038900050E067EE70E085E090E00E945A0F0E94D1
:1038A0006A090E9482089110B6CEA5C80E948010B5
:1038B000B0923405A092330564EF71E080E090E0AF
:1038C0000E949805CACE0E94B10F10923405109242
:1038D0003305F2CF61E08CE20E94F30370920402A0
:1038E000D5CE0E94B10F99CF4A97A105B10509F035
:1038F00082C801E02DE030E042EE50E06EE370E07F
:103900008FE690E00E947A0902E02DE030E04FE679
:1039100050E062EA70E08FE690E00E947A0903E0EE
:103920002EE030E042EF50E062E870E084E690E0A4
:103930000E947A0905E02EE030E042EF50E06AEAAA
:1039400070E084E690E00E947A0904E02EE030E026
:1039500042EF50E062ED70E084E690E00E947A0968
:103960000E946A090E948208B12C512C412C5FE808
:10397000E52E52E0F52E6AEFC62ED12C86E30E948A
:103980005605CE01845B9F4F0E94550B0E942E0965
:1039900060E070E980E190E00E944B083B014C013F
:1039A000DC01CB019927AA27BB2781309105A1050E
:1039B000B10571F560E08AE20E94F30334019924B5
:1039C00077FC9094892CC401B3012FE832E040E0E9
:1039D00050E00E94DC2EB901330F880B990B0E9436
:1039E000982D20E030E040E250E40E94F72D0E9444
:1039F000E42F85E00E94810470923D0560923C05B1
:103A000061E08AE2672809F46DC0AA24A39480C10A
:103A100082309105A105B10509F067C060E088E238
:103A20000E94F3033401992477FC9094892C23019C
:103A3000C401B3012FE832E040E050E00E94DC2EE8
:103A4000CA01B9010E94982D23E333E343E150E416
:103A50000E94F72D0E94E42F9B0177FF02C028509F
:103A60003F4F4091020250910302249FC001259FC5
:103A7000900D349F900D1124B6010E94BE308B0131
:103A800040912F0550913005249FC001259F900D36
:103A9000349F900D1124B6010E94BE301B0140914D
:103AA0002D0550912E05249FC001259F900D349F18
:103AB000900D1124B6010E94BE3082E00E94810464
:103AC000B10187E00E948104B80186E00E94810470
:103AD00070922C0560922B054114510409F095CF8A
:103AE00061E088E20E94F30390CF83309105A10545
:103AF000B10509F054C0C401BB2797FDB095AB2FA9
:103B000090932A0580932905B7010E94BE3090E06A
:103B100080E00E94962D23E333E343E150E40E94CA
:103B2000F72D0E94E42FA5966CAF7DAF8EAF9FAFAF
:103B3000A597A3962EAD3FADA39730932E05209366
:103B40002D0580912B0590912C05B7010E94BE3068
:103B500090E080E00E94962D23E333E343E150E4BC
:103B60000E94F72D20E030E04AE753E40E947C2FCA
:103B70003B014C01A396AEADBFADA397BD0190E054
:103B800080E00E94962D9B01AC01C401B3010E940C
:103B9000F72D0E94E42F82E00E94810436CF84300A
:103BA0009105A105B10509F052C0C401BB2797FDDD
:103BB000B095AB2F9093280580932705B7010E94FD
:103BC000BE3090E080E00E94962D23E333E343E192
:103BD00050E40E94F72D0E94E42FA5966CAF7DAFB4
:103BE0008EAF9FAFA597A396EEADFFADA397F093D1
:103BF0003005E0932F0580912B0590912C05B7019E
:103C00000E94BE3090E080E00E94962D23E333E3D3
:103C100043E150E40E94F72D20E030E04AE753E40E
:103C20000E947C2F3B014C01A3962EAD3FADA39784
:103C3000B90190E080E00E94962D9B01AC01C40187
:103C4000B3010E94F72D0E94E42F87E0A5CF8530B5
:103C50009105A105B10509F052C0C401BB2797FD2C
:103C6000B095AB2F9093010280930002B7010E94A0
:103C7000BE3090E080E00E94962D23E333E343E1E1
:103C800050E40E94F72D0E94E42FA5966CAF7DAF03
:103C90008EAF9FAFA597A3968EAD9FADA397909340
:103CA00003028093020280912B0590912C05B701AD
:103CB0000E94BE3090E080E00E94962D23E333E323
:103CC00043E150E40E94F72D20E030E04AE753E45E
:103CD0000E947C2F3B014C01A396AEADBFADA397D4
:103CE000BD0190E080E00E94962D9B01AC01C401D3
:103CF000B3010E94F72D0E94E42F86E04DCF82335E
:103D00009105A105B10509F099C10E941412A12CD9
:103D10006CEC7CEC8CEC92E00E94130967E070E0A4
:103D200080E096E20E94130981E00E94BC09BB205A
:103D300009F4E2C181E00E94BC0983E00E9473099A
:103D40000091290510912A052EE030E042EF50E065
:103D500062E870E084E690E00E94200A40E06FEFA5
:103D600085E50E94380985E00E94730900910002F0
:103D7000109101022EE030E042EF50E06AEA70E07C
:103D800084E690E00E94200A4FEF60E080E00E940D
:103D9000380984E00E9473090091270510912805D5
:103DA0002EE030E042EF50E062ED70E084E690E01B
:103DB0000E94200A40E060E080E00E94380989E02B
:103DC0000E945E0940E060E080E00E94380920E047
:103DD00040E06CE170E088E190E00E943C0920E066
:103DE00040E064E670E080E291E00E943C0920E05F
:103DF00040E06BE770E080E791E00E943C0920E042
:103E000040E063E970E081ED91E00E943C0920E030
:103E100040E06BE770E08AE691E00E943C0920E018
:103E200040E063E970E087ED91E00E943C0920E00A
:103E300040E063EA70E08AE691E00E943C0920E0FD
:103E400040E06EEB70E087ED91E00E943C0920E0DD
:103E500040E06BEC70E08AE691E00E943C0920E0D3
:103E600040E066EE70E087ED91E00E943C090E9420
:103E7000650940E060E08FEF0E94380980E00E9411
:103E8000BC0980E90E9473094FEF6FEF8FEF0E942A
:103E900038090CE113E030E020E04BE16EE770E020
:103EA00088E090E00E94EF0E05E213E030E020E0B1
:103EB0004BE16DEC70E088E090E00E94EF0E00E3D3
:103EC00013E030E020E04BE167EA70E088E090E04A
:103ED0000E94EF0E80912E058F9380912D058F9378
:103EE000E9E3F3E0FF93EF9381E090E08C0F9D1FF7
:103EF0009F938F930E948C34809130058F93809193
:103F00002F058F93A9E3B3E0BF93AF936F96FFADF7
:103F10006F97FF936E962FAD6E972F930E948C3400
:103F2000809103028F93809102028F9389E393E043
:103F30009F938F93A196BFADA197BF93A096EFAD2E
:103F4000A097EF930E948C348E010F5F1F4F30E0DB
:103F500020E044E16DE770E082E791E00E94EF0E1F
:103F6000095C1F4F30E020E044E16EEC70E082E736
:103F700091E00E94EF0E0951110930E020E044E188
:103F800066EA70E082E791E00E94EF0E0AE413E037
:103F900030E020E04CE163E370E081E290E00E94D9
:103FA000EF0E89E00E945E0940912F0560910202A8
:103FB00080912D050E94380920E040E06DE270E01C
:103FC0008CE890E00E943C0920E040E062E570E06F
:103FD00081E091E00E943C090E9465096AE07FEF60
:103FE0008FEF9FEF0E9413096AE970E080E090E094
:103FF0000E9413094FEF6FEF8FEF0E94380984E39F
:104000000E94730981E00E94BC090EEC12E02EE1CF
:1040100030E048E750E06DEE70E081E691E00E940C
:104020005A0F0FB6F894DEBF0FBECDBF0E946A09CB
:104030000E948208A110A2CC0C94FB14833391053A
:10404000A105B10509F455C0C497A105B10509F052
:10405000DCCCC201B7010E94D230072E000C880BC5
:10406000990B0E94982D23E333E343E150E40E942F
:10407000F72D0E94E42F9B0177FF02C028503F4F8D
:1040800040912F0550913005249FC001259F900D30
:10409000349F900D1124B6010E94BE305B01409107
:1040A000020250910302249FC001259F900D349F6E
:1040B000900D1124B6010E94BE308B0140912D0558
:1040C00050912E05249FC001259F900D349F900D87
:1040D0001124B6010E94BE3082E00E948104B50125
:1040E00087E00E948104B80186E00E948104B12C1F
:1040F0008CCCBB24B39489CC89E00E945E0940E05B
:1041000060E080E00E94380920E040E06EE170E06D
:1041100084E190E00E943C0920E040E06EE670E01F
:1041200082EC91E00E943C0920E040E062E870E00F
:1041300084E190E00E943C0920E040E062ED70E004
:1041400082EC91E00E943C090E9465094FEF6FEFFD
:104150008FEF0E9438096FE570E080E090E00E94E8
:10416000C30981E00E94BC0981E00E94730960904C
:104170003C0570903D0583012DE030E042EE50E0BB
:104180006EE370E08FE690E00E94200A82E00E94D9
:10419000730980902B0590902C0584012DE030E070
:1041A0004FE650E062EA70E08FE690E00E94200A5D
:1041B00080E00E94BC0984E60E9473094FEF6FEF14
:1041C0008FEF0E94380981E00E94BC0901E513E0ED
:1041D00030E020E04CE164E270E084E791E00E948E
:1041E000EF0E30E020E04CE168E870E084E791E019
:1041F0000E94EF0E09E513E030E020E04DE166E3B8
:1042000070E081E290E00E94EF0E00E613E030E003
:1042100020E04CE16CE970E089E190E00E94EF0E53
:1042200040E0672809F052C060E08FEF0E94380933
:104230000AE613E030E020E046E16CE470E08DE651
:1042400091E00E94EF0E40E0892809F046C060E04E
:104250008FEF0E9438090AE613E030E020E046E1E3
:1042600060EB70E08DE691E00E94EF0E4FEF6FEF94
:104270008FEF0E9438096AE07FEF8FEF9FEF0E9477
:1042800013096AE970E080E090E00E94130982E37C
:104290000E9473090BEB12E024E230E048E750E0A3
:1042A00066EE70E083E691E00E945A0F83E30E947D
:1042B00073090DE713E02FE130E04FE550E06AE9C4
:1042C00070E082E091E00E945A0FB0CE6FEF80E084
:1042D0000E94380904E713E0ADCF6FEF80E00E9441
:1042E000380904E713E0B9CF60E070E080EC9FE7A5
:1042F0000C945C1660E070E080EC9FE70C94E11891
:1043000060E070E0CB010C94E11889E00E945E0946
:1043100040E060E080E00E94380920E040E06AE58B
:1043200070E084E091E00E943C0920E040E060EA17
:1043300070E086ED91E00E943C090E946509809042
:104340003F0590904005A0904105B0904205811432
:104350009104A104B104D1F00E94C8050091430565
:10436000109144052091450530914605601B710B65
:10437000820B930B80903F0590904005A0904105E3
:10438000B0904205861A970AA80AB90AC501B40175
:1043900028EE33E040E050E00E94BA2E29013A01B5
:1043A00040E060E084ED0E9438096FEF7FEF8FEF0F
:1043B00090E00E94C3098091D9069091DA06009797
:1043C00009F440C00E94D42A2CE3269F7001279F45
:1043D000F00C112482012CE030E044EB50E069E85D
:1043E00070E084E191E00E94D509EDE34E1651049E
:1043F0006104710458F57F926F925F924F9289EF3A
:1044000093E09F938F9321E030E02C0F3D1F3F936B
:104410002F930E948C344FEF6FEF8FEF0E9438097B
:104420008E010F5F1F4F30E020E047E16FE570E045
:1044300089E091E00E94EF0E0FB6F894DEBF0FBE48
:10444000CDBFBEC860E070E0CB01BECFC501B401F6
:1044500020E63AEE40E050E00E94BA2E5F934F9380
:104460003F932F938BE094E09F938F93A1E0B0E074
:10447000AC0FBD1FBF93AF93CCCF1F920F920FB65F
:104480000F9211240BB60F922F933F934F935F938C
:104490006F937F938F939F93AF93BF93EF93FF930C
:1044A0008EE995E00E94CF02FF91EF91BF91AF910D
:1044B0009F918F917F916F915F914F913F912F913C
:1044C0000F900BBE0F900FBE0F901F9018951F926C
:1044D0000F920FB60F9211240BB60F922F938F935A
:1044E0009F93EF93FF93E091AE05F091AF0580812C
:1044F000E091B405F091B50582FD1DC090818091D9
:10450000B7058F5F8F732091B805821741F0E09156
:10451000B705F0E0E256FA4F958F8093B705FF910B
:10452000EF919F918F912F910F900BBE0F900FBE27
:104530000F901F9018958081F2CF1F920F920FB6A7
:104540000F9211242F933F938F939F93AF93BF9319
:1045500080911B0590911C05A0911D05B0911E0531
:1045600030911A0523E0230F2D3758F50196A11D30
:10457000B11D20931A0580931B0590931C05A093F1
:104580001D05B0931E0580911F0590912005A091F7
:104590002105B09122050196A11DB11D80931F0533
:1045A00090932005A0932105B0932205BF91AF9170
:1045B0009F918F913F912F910F900FBE0F901F9061
:1045C000189526E8230F0296A11DB11DD2CF1F9288
:1045D0000F920FB60F9211240BB60F922F933F93A9
:1045E0004F935F936F937F938F939F93AF93BF93FB
:1045F000EF93FF938091B900887F803609F44DC016
:1046000008F040C0883209F4A9C028F5803109F4C7
:104610009DC0C8F4882309F4FBC0883009F496C013
:10462000FF91EF91BF91AF919F918F917F916F918A
:104630005F914F913F912F910F900BBE0F900FBE46
:104640000F901F901895883109F488C0803241F787
:104650008093970514C0803409F49DC040F48033E2
:10466000B9F38833E9F68093970585ECB0C08035BF
:1046700009F485C0883509F496C0883489F60E940B
:10468000D405CECF883909F48CC038F5883729F0A5
:1046900050F4883611F0803719F683E0809399053D
:1046A0001092190557C0883809F47BC0803919F079
:1046B000803809F0B5CF80911905803208F071C0BB
:1046C000E091190581E08E0F809319058091BB0060
:1046D000F0E0E750FB4F80833DC0803B39F0E0F4D1
:1046E000803A09F479C0883A09F09ACF84E080933F
:1046F00099051092F8041092F704E0914A05F091A0
:104700004B0519958091F70481110FC081E08093CA
:10471000F7041092D70409C0803C09F4A6CF883C66
:1047200009F4A3CF883B09F07BCFE091F80481E046
:104730008E0F8093F804F0E0E952FB4F8081809364
:10474000BB009091F8048091F70429C080919405F2
:104750008093BB0085EC8093BC0062CF909196055E
:1047600080919505981758F5E091960581E08E0F98
:1047700080939605F0E0ED58FA4F8081E9CFE09103
:10478000960581E08E0F809396058091BB00F0E046
:10479000ED58FA4F80839091960580919505981772
:1047A000C8F285E8D8CFE091960581E08E0F80931E
:1047B00096058091BB00F0E0ED58FA4F8083809120
:1047C000980581115CCF81E08093930584EA809302
:1047D000BC001092990524CF85EC8093BC00109208
:1047E000990580911905803230F4E0911905F0E0C7
:1047F000E750FB4F10826091190570E0E091480589
:10480000F091490589EF94E019951092190508CFA8
:104810001092970534CFEEE9F5E01382128288EE0C
:1048200093E0A0E0B0E084839583A683B78321E57D
:1048300032E03183208325EC30E03587248724EC77
:1048400030E03787268720EC30E0318B208B21EC5D
:1048500030E0338B228B22EC30E0358B248B26EC3E
:1048600030E0378B268B118E128E138E148EE1E87A
:10487000F6E01382128284839583A683B78383E64E
:1048800092E091838083EBE3F6E016821782108634
:104890001186128613861486158616861786108A48
:1048A000118A128A138A148A158A6EED72E089EDD4
:1048B00096E00E94D5110E94200481E090E0909340
:1048C000D8068093D706E4ECF6E0118284E0828378
:1048D0001482158216821782158614868CEF9FE04B
:1048E0009787868787E0828781E08387138289E0C4
:1048F000808383E090E091878087E1E9F6E08AE0B9
:1049000083878BE084878CE085878DE086870E9493
:10491000C80560938D0670938E0680938F069093E2
:1049200090060895CF93DF93CDB7DEB760970FB6AB
:10493000F894DEBF0FBECDBF789484B5826084BD8D
:1049400084B5816084BD85B5826085BD85B5816093
:1049500085BD80916E00816080936E001092810011
:1049600080918100826080938100809181008160CC
:10497000809381008091800081608093800080918D
:10498000B10084608093B1008091B0008160809319
:10499000B00080919100826080939100809191009D
:1049A000816080939100809190008160809390005D
:1049B0008091A10082608093A1008091A10081601C
:1049C0008093A1008091A00081608093A0008091DD
:1049D0002101826080932101809121018160809377
:1049E00021018091200181608093200180917A00D3
:1049F000846080937A0080917A00826080937A004C
:104A000080917A00816080937A0080917A0080683A
:104A100080937A001092C10010927D0610927E065B
:104A200010927F061092800610923D0610923E066C
:104A300010923F06109240060E94C8056B017C014F
:104A40004B015C0128EB820E2BE0921EA11CB11CD5
:104A50000E94C8056C157D058E059F0528F08616F9
:104A60009706A806B906A0F768EE73E080E090E02C
:104A70000E9498050E94FC010E94C80560933D06B3
:104A800070933E0680933F06909340068DE194E03C
:104A90000E949F0E0E94C8056B017C014B015C01C6
:104AA0003AE0830E911CA11CB11C0E94C8056C1534
:104AB0007D058E059F0528F086169706A806B9067F
:104AC000A0F781E0809351060E94FC0161E0809193
:104AD000C6060E94500461E08091C6060E94F3035E
:104AE0008091CC069091CD068F3F980719F060E039
:104AF0000E94500461E08091C4060E94500461E06D
:104B00008091C4060E94F3030E94E1060E942402E1
:104B10008CB58F7D8CBD8CB5837F8CBD61E0809121
:104B2000C6060E94F30364E170E080E090E00E941A
:104B3000980560E08091C6060E94F30364E170E08E
:104B400080E090E00E94980561E08091C6060E9496
:104B5000F30364E170E080E090E00E9498058CE04F
:104B6000E1E4F2E0DE01119601900D928A95E1F701
:104B70000E94240260E070E0CB010E943C0864E1E6
:104B800070E080E090E00E94980564E170E080E0D1
:104B900090E00E94980560E070E080E190E00E9463
:104BA0001F078E010F5F1F4F7E015DE0E50EF11CB8
:104BB000F80181918F010E9418070E151F05C1F79A
:104BC00084EC96E00E94140742E060E574E280E124
:104BD00090E00E9445071092D1061092D0068CEF0B
:104BE0009FE09093D3068093D20650E040E068E4C3
:104BF00074E280E190E00E944E074AE050E06CE4ED
:104C000074E280E190E00E944E074CE050E060E4E6
:104C100074E280E190E00E944E0744E251E06CE3D0
:104C200074E280E190E00E944E0750E040E064E3CF
:104C300074E280E190E00E944E0749E250E068E3B0
:104C400074E280E190E00E944E074BE250E06CE29B
:104C500074E280E190E00E944E0744E252E068E294
:104C600074E280E190E00E944E0740EE51E060E384
:104C700074E280E190E00E944E0740E151E064E47C
:104C800074E280E190E00E944E0741E050E068E667
:104C900074E280E190E00E944E0750E040E060E660
:104CA00074E280E190E00E944E0745E050E06CE63F
:104CB00074E280E190E00E944E0760E070E084E4DE
:104CC00090E00E943C0864E170E080E090E00E9487
:104CD00098050E94240264E170E080E090E00E9468
:104CE000980560E070E08CE090E00E944B086B015A
:104CF0007C01F8E0CF16D104F1E0EF06F10409F4ED
:104D0000F9C08EE294E00E949F0E40E1C701B60117
:104D10000E94AC0E85E494E00E949F0E64EF862E04
:104D200099249394A12CB12C0E94C805672B682B61
:104D3000692B09F466C30E94C805009123051091F0
:104D400024052091250530912605601771078207FB
:104D5000930708F461C30091230510912405209165
:104D60002505309126056B017C01C01AD10AE20AA3
:104D7000F30A970186010A3F11052105310508F460
:104D800048C3609323057093240580932505909371
:104D900026058092490690924A06A0924B06B09250
:104DA0004C0610924D0610924E0610924F0610922D
:104DB00050068091410690914206A0914306B09121
:104DC00044068093450690934606A0934706B09309
:104DD00048060E94C805609341067093420680937E
:104DE0004306909344060E94C80560933D06709365
:104DF0003E0680933F06909340060E94C8056B01D3
:104E00007C0181EA94E00E949F0E4AE061E070E03C
:104E100080E090E00E94AC0E88EA94E00E949F0E31
:104E20004AE0C701B6010E94AC0E8AEA94E00E94F3
:104E30009F0E8091410690914206A0914306B09149
:104E40004406A7019601281B390B4A0B5B0BCA01CC
:104E5000B9014AE00E94AC0E8AEA94E00E949F0EDB
:104E600060914106709142068091430690914406FC
:104E7000009145061091460620914706309148065C
:104E8000601B710B820B930B4AE00E94AC0E8CEA04
:104E900094E00E949F0E0E94C8054AE00E94AC0E5A
:104EA0008EEA94E00E949F0E85E494E00E949F0E9B
:104EB0000E94C8056B017C012B013C0135E0430ECB
:104EC000511C611C711C0E94C8056C157D058E0566
:104ED0009F0528F04616570668067906A0F70E9437
:104EE000C8056093410670934206809343069093F1
:104EF00044068FC287E08093CE066CE874E280E1BE
:104F000090E00E943C08482F40686CE874E280E121
:104F100090E00E94450781E08093CF066CE874E240
:104F200080E190E00E943C08482F42606CE874E207
:104F300080E190E00E9445078091CE0601E010E0FC
:104F4000780101C0EE0C8A95EAF760E974E280E12D
:104F500090E00E943C08482F4E2960E974E280E10D
:104F600090E00E9445078091CF0601C0000F8A950E
:104F7000EAF760E974E280E190E00E943C08482F83
:104F8000402B60E974E280E190E00E94450787E7EA
:104F90008093930681E896E0909392068093910621
:104FA00080919C068F3FE1F40E94200480ED0E94D6
:104FB000200D803609F01CC266EB80EE0E94E007EF
:104FC0006CE271E080E090E00E94980583EF0E941F
:104FD000200D80FF22C064E670E080E090E0F4CF16
:104FE00061E00E94F30361E080919C060E945004FE
:104FF00080919F068F3F19F40E94E106D7CF61E0B0
:105000000E94500461E080919D060E94500460E07F
:1050100080919E060E945004C9CF88E80E941B0D13
:105020009093A1068093A0068AE80E941B0D90939E
:10503000A3068093A2068CE80E941B0D9093A50600
:105040008093A4068EE80E941B0D9093A706809380
:10505000A60680E90E941B0D9093A9068093A806DE
:1050600082E90E941B0D9093AB068093AA0684E907
:105070000E941B0D9093AD068093AC0686E90E94BA
:105080001B0D9093AF068093AE0688E90E941B0D1E
:105090009093B1068093B0068AE90E941B0D90930D
:1050A000B3068093B2068CE90E941B0D9093B5065F
:1050B0008093B4068EE90E941B0D9093B7068093EF
:1050C000B60681EA0E94200D8093B80681EE0E9408
:1050D0001B0D9093BA068093B90683EE0E94200DB3
:1050E0008093BB0684EE0E94200D182F85EE0E944F
:1050F000200D40E1149F900111248F70282B3093D4
:10510000BD062093BC0686EE0E94200D182F85EE6A
:105110000E94200D50E1159F9001112490E054E071
:10512000959587955A95E1F7822B932B9093BF061F
:105130008093BE0687EE0E94200D8093C0068DEE00
:105140008093C2068091C3068F71806A8093C306E4
:105150008091C106807C8093C10665E082EF0E9449
:10516000E0078091C106682F677090E2699FB001E7
:105170001124282F2695269526952770E8E02E9F46
:1051800090011124622B87FB882780F9682B85EF1B
:105190000E94E0078091C206682F6770F0E26F9F5F
:1051A000B0011124282F269526952695277048E0D2
:1051B000249F90011124622B829586958695837099
:1051C000682B84EF0E94E00764E670E080E090E0E6
:1051D0000E94980561E08CE20E94500461E08AE23E
:1051E0000E94500461E088E20E94500461E08CE279
:1051F0000E94F30361E08AE20E94F30361E088E227
:105200000E94F30361E085E00E94500461E082E0C7
:105210000E94500461E087E00E94500461E086E053
:105220000E94500460E086E30E9450040E942E0910
:1052300060E470E480E492E00E94130967E070E0AB
:1052400080E096E20E9413094FEF6FEF8FEF0E940C
:10525000380909E814E020E036E04BE168E870E046
:1052600080EF90E00E94EF0E65E17FEF8FEF9FEF00
:105270000E94130960E070E0CB010E9413090E94B4
:1052800082080E942E094FEF6FEF8FEF0E943809BE
:1052900081E00E945E0923E54FE162E770E080E46F
:1052A00090E00E943C0960E870E080E090E10E949C
:1052B000130921E44FE162E770E08EE590E00E947F
:1052C0003C0960E470E080E090E10E94130925E56C
:1052D0004FE162E770E08CE790E00E943C0963E2F6
:1052E00070E080E090E10E9413092EE44FE162E754
:1052F00070E08AE990E00E943C0969E170E080E09A
:1053000090E10E94130921E44FE162E770E088EB2D
:1053100090E00E943C090E94650944E16BE584E14C
:105320000E94380961E170E080E09BE00E9413096F
:1053300060EE71E080E09DE00E94130982E00E942F
:105340005E0914E130E1432E55245394612C712CF5
:1053500040EFC42ED12CE12CF12CD1D04B015C01BB
:10536000CED0A301920128D584E0660F771F8A95DD
:10537000E1F77F77072E000C880B990B9B01AC019E
:1053800050642D873E874F87588BC501B401A70114
:10539000960112D560517F4F94E0660F771F9A9562
:1053A000E1F7072E000C880B990B2FE0660F771F93
:1053B000881F991F2A95D1F72D853E854F855889DD
:1053C000622B732B842B952B0E941309115009F02B
:1053D000C4CF0E9465090E946A090E94820860EA9F
:1053E0007FE080E090E00E9498050E94141296CC25
:1053F00088E494E00E949F0E85E494E00E949F0E52
:10540000E9CE0E94C805623071058105910508F05A
:1054100092CC0E945C0388CC609323057093240592
:10542000809325059093260596CC89ED96E00C9403
:10543000A90FEF920F931F93CF93DF93E80134E00E
:1054400047FD34E1042E000C550B57FF03C0519566
:1054500041955109E32E022F242FAE0103D1CE0135
:10546000DF91CF911F910F91EF9008958F929F92AE
:10547000AF92BF92CF92DF92EF92FF92CF93DF93E2
:10548000EC01688179818A819B81611571058105B3
:10549000910521F464E279ED8BE597E02DE133EF9E
:1054A00041E050E089D449015A019B01AC01A7EACF
:1054B000B1E49ED46B017C01ACEEB4EFA501940184
:1054C000A3D4C60ED71EE81EF91EF7FE06C081E063
:1054D000C81AD108E10880E8F80AC882D982EA82AD
:1054E000FB82C701B6019F77DF91CF91FF90EF90CC
:1054F000DF90CF90BF90AF909F908F9008958F9244
:105500009F92AF92BF92CF92DF92EF92FF92609103
:1055100005027091060280910702909108026115C0
:1055200071058105910521F464E279ED8BE597E041
:105530002DE133EF41E050E03FD449015A019B0196
:10554000AC01A7EAB1E454D46B017C01ACEEB4EF3A
:10555000A501940159D4C60ED71EE81EF91EF7FE08
:1055600006C081E0C81AD108E10880E8F80AC092B4
:105570000502D0920602E0920702F0920802C701EB
:10558000B6019F77FF90EF90DF90CF90BF90AF90E4
:105590009F908F9008956093050270930602809308
:1055A00007029093080208951F93FC01992788270A
:1055B000BC01E89411911032E9F3193010F01E305B
:1055C000C8F31B3249F01D3241F4689405C01CD069
:1055D000610F711D811D911D119110531A30B8F387
:1055E0003EF490958095709561957F4F8F4F9F4FBA
:1055F0001F910895BB274A3031F4992322F4BDE26C
:10560000909581959F4F16C0592F482F372F262FE1
:10561000660F771F881F991F660F771F881F991FB6
:10562000620F731F841F951F660F771F881F991FB6
:105630000895BB27FB015527AA27880F991FAA1F8A
:10564000A41710F0A41B83955051B9F7A05DAA339D
:1056500008F0A95DA193009779F7B111B193119268
:10566000CB0150C28F929F92AF92BF92CF92DF92A6
:10567000EF92FF920F931F93CF93DF9300D000D050
:1056800000D0CDB7DEB76A01F22EB02E102FFBE3AB
:10569000AF2EA01608F41BE31F5F012F27E0AE0119
:1056A0004F5F5F4F57D1BC018981982F997091301E
:1056B00009F44EC09BE2E1FC04C09E2D9170E0FC19
:1056C00049C05E2D5071E82FE87083FF55C084E01B
:1056D000911101C083E0EF2DE81B8F1508F0E0E089
:1056E000D6018E2F20E25523C9F1992329F0D60146
:1056F0009C93C60101966C0196012D5F3F4FE2FE1F
:1057000033C08EE4D6018C9391E411969C9311974B
:1057100012968C93D9018E2F90E281112AC0E20F4C
:10572000F32FF11D10828EEF9FEF29960FB6F8949C
:10573000DEBF0FBECDBFDF91CF911F910F91FF90C4
:10574000EF90DF90CF90BF90AF909F908F90089593
:105750009DE2B7CF90E2B5CF2D9381508111FCCF60
:10576000CE0ED11CE0E0C1CF8EE6D6018C9391E63F
:10577000CCCF9D938150D1CF482F447082FF3DC044
:1057800084E0911101C083E08F1510F4EF2DE81B28
:10579000D6018E2F20E2552309F1992329F0D60155
:1057A0009C93C60101966C0196012D5F3F4FE2FE6E
:1057B0001BC089E4D6018C938EE411968C931197CB
:1057C00086E412968C93D9018E2F90E2882309F4F7
:1057D000A6CF9D938150FACF2D9381508111FCCF9C
:1057E000CE0ED11CE0E0D9CF89E6D6018C938EE6AF
:1057F00011968C93119786E6E4CF9B0177FF02C048
:1058000030E020E0A1E0B0E0911102C0B0E0A0E003
:10581000F9013196AE0FBF1F8B2C912CBB2009F4E0
:1058200061C05401EFEFAE1ABE0AAA0DBB1DFA16F5
:105830001B0619F014F04F2D4A1B511188C0E3FCD0
:1058400059C07601A42FB0E2A1114FC0C40ED11CE3
:10585000992309F45BC040E0D6011196F6019083CC
:105860006D01552309F448C0012F060F9A81582F66
:10587000507184FF03C0913309F4015010160CF0ED
:1058800047C0093008F008E0EEE2FE2E5B01A01AE6
:10589000B10885019194819491082F3F320729F432
:1058A000D601FC92F60131966F016217730794F1ED
:1058B000021713077CF5DB01A21BB30BAA24A394E8
:1058C000B12CAC0EBD1EAA0DBB1D11968C912150A2
:1058D0003109D601119628153905F4F0F6018083B7
:1058E0006D01DBCFB12CA12CA0CFF701B1937F01CB
:1058F000A150AACF9111B0CFD601942F50E302C08E
:105900005D9391509111FCCFC40ED11C40E0ACCFFF
:1059100001E0BACF80E3DBCF6217730731F496332F
:1059200088F4953311F4552369F0F6018083FD0165
:10593000842F90E2811108C0A40FB11D1C9290E049
:1059400080E0F3CE81E3F1CF91938150F3CF9111B9
:1059500083CF8ACF283008F027E03327DA01990F68
:10596000311D87FD916000966105710539F4326043
:105970002E5F3D9330E32A95E1F708959F3F30F085
:1059800080387105610509F03C5F3C5F3D939130C3
:1059900008F08068911DDF93CF931F930F93FF92C0
:1059A000EF92192F987F9695E92F96959695E90F86
:1059B000FF27E25CFE4F99273327EE24FF24A7013F
:1059C000E70105900894079428F4360FE71EF81EA7
:1059D000491F511D660F771F881F991F0694A1F755
:1059E0000590079428F4E70EF81E491F561FC11DA5
:1059F000770F881F991F661F0694A1F705900794DB
:105A000028F4F80E491F561FC71FD11D880F991F74
:105A1000661F771F0694A1F70590079420F4490F9D
:105A2000561FC71FD81F990F661F771F881F069420
:105A3000A9F784911095177041F0D695C7955795A1
:105A40004795F794E7941A95C1F7E4EEF0E068946F
:105A50001590159135916591959105907FE273951B
:105A6000E118F10A430B560BC90BD009C0F7E10C42
:105A7000F11E431F561FC91FD01D7EF4703311F451
:105A80008A95E6CFE894015030F0080F0AF4002719
:105A9000021708F4202F2395022F7A3328F079E398
:105AA0007D932A95E9F710C07D932A9589F606948F
:105AB00097956795379517951794E118F10A430B59
:105AC000560BC90BD00998F023957E9173957A33C4
:105AD00008F070E37C932013B8F77E9170617D939A
